:020000040800F2
:100000005804002045010008870F00087F0F0008F2
:10001000830F0008B1010008A912000800000000C9
:10002000000000000000000000000000B50F000804
:10003000F101000800000000890F0008B70F000858
:100040005F0100085F0100085F0100085F01000810
:100050005F0100085F010008F30100085F0100086C
:100060005F0100085F0100085F0100085F010008F0
:100070005F0100085F0100085F0100085F010008E0
:100080005F0100085F0100085F0100085F010008D0
:100090005F0100085F0100085F0100085F010008C0
:1000A0005F0100085F0100085F0100085F010008B0
:1000B0005F0100085F0100085F0100085F010008A0
:1000C0005F0100085F0100085F0100085F01000890
:1000D0005F010008851200085F0100085F01000849
:1000E0005F0100085F0100085F0100085F01000870
:1000F0005F0100085F0100085F0100085F01000860
:100100005F0100085F0100085F0100085F0100084F
:100110005F0100085F0100085F0100085F0100083F
:100120005F0100085F0100085F0100085F0100082F
:10013000DFF80CD000F02AF80048004775130008DB
:10014000580400200648804706480047FEE7FEE7BF
:10015000FEE7FEE7FEE7FEE7FEE7FEE7FEE7FEE777
:100160002110000831010008D2B201E000F8012B93
:10017000491EFBD270470022F6E710B513460A4627
:1001800004461946FFF7F0FF204610BD064C074D08
:1001900006E0E06840F0010394E807009847103457
:1001A000AC42F6D3FFF7C8FFEC1300080C140008AC
:1001B00000BFFEE710B50C480C4908604FF4E13071
:1001C0004860002109488160C160016181610C21A2
:1001D000416100F0E1FD05480068C06840F0200082
:1001E00002490968C86010BD0038014014000020B1
:1001F000704770472DE9F847024600239C467BE193
:100200004FF0010808FA03F4D1F8008008EA04006E
:10021000A0427DD1DFF8F4A2D1F80480A8EB0A094E
:10022000D0453AD014DCB8F1030F50D009DCB8F156
:10023000000F31D0B8F1010F1CD0B8F1020F49D135
:1002400020E0B8F1110F18D0B8F1120F42D11EE022
:10025000B9F5881F25D006DCB9F5803F20D0B9F567
:10026000801F37D11AE0B9F5001F18D0B9F5041F67
:1002700030D117E0D1F80CC02DE0D1F80C8008F196
:10028000040C28E0D1F80C8008F1080C23E0D1F828
:100290000C8008F10C0C1EE000BF00BF00BF00BFC7
:1002A00000BF00BFD1F80880B8F1000F02D14FF0B5
:1002B000040C0BE0D1F80880B8F1010F03D14FF026
:1002C000080C146102E04FF0080C546103E04FF099
:1002D000000C00E000BF00BFFF2801D8904601E0FD
:1002E00002F104084646FF2802D84FEA830803E0DB
:1002F000A3F108084FEA88084746D6F800804FF077
:100300000F0909FA07F928EA09080CFA07F900E0C9
:100310007AE048EA0908C6F80080D1F8048008F0BD
:100320008058B8F1805F6FD100BFDFF8E481D8F862
:10033000188048F00108DFF8D891C9F81880C8463D
:10034000D8F8188008F00108CDF8008000BF00BF81
:100350004FEAB9384FEA930958F829504FEA8378A1
:100360004FEA18794FF00F0808FA09F825EA08054E
:10037000DFF8A081424502D14FF0000824E0DFF809
:100380009881424502D14FF001081DE0DFF88C81D1
:10039000424502D14FF0020816E0DFF88481424561
:1003A00002D14FF003080FE0DFF87881424502D117
:1003B0004FF0040808E0DFF87081424502D14FF0A9
:1003C000050801E04FF006084FEA83794FEA1979F2
:1003D00008FA09F848EA0505DFF850814FEA930961
:1003E00048F82950D1F8048008F48038B8F5803FE7
:1003F0000BD1DFF83C81D8F8008048EA0008DFF82C
:100400003091C9F800800AE075E0DFF82481D8F85F
:10041000008028EA0008DFF81891C9F80080D1F8B8
:10042000048008F40038B8F5003F0ED1DFF80081F1
:1004300008F10408D8F8008048EA0008DFF8F090D6
:1004400009F10409C9F800800DE0DFF8E48008F143
:100450000408D8F8008028EA0008DFF8D49009F1F1
:100460000409C9F80080D1F8048008F48018B8F5B0
:10047000801F0ED1DFF8B88008F10808D8F8008096
:1004800048EA0008DFF8A89009F10809C9F80080D7
:100490000DE0DFF89C8008F10808D8F8008028EA11
:1004A0000008DFF88C9009F10809C9F80080D1F83C
:1004B000048008F40018B8F5001F0ED1DFF8708032
:1004C00008F10C08D8F8008048EA0008DFF86090CE
:1004D00009F10C09C9F800800DE0DFF8548008F13B
:1004E0000C08D8F8008028EA0008DFF8449009F1E9
:1004F0000C09C9F800805B1CD1F8008028FA03F8C9
:10050000B8F1000F7FF47CAEBDE8F8870000111051
:100510000010024000080140000C014000100140A2
:100520000014014000180140001C01400800014077
:1005300000040140014800687047000004000020EA
:100540000348006803490978084401490860704776
:10055000040000200C00002010B50848006840F09E
:10056000100006490860032000F080F80F2000F01A
:1005700007F800F02BF8002010BD0000002002401A
:1005800070B504460E4800784FF47A71B1FBF0F074
:100590000C490968B1FBF0F5284600F0E3FB08B10F
:1005A000012070BD102C07D200222146501E00F001
:1005B0001EF80548046001E00120F2E70020F0E7A2
:1005C0000C000020000000200800002070470146B9
:1005D0000846002809DB00F01F0301229A40430966
:1005E0009B0003F1E023C3F8002100BF70472DE911
:1005F000F05F80460D461646002700F071FE074664
:1006000039462A46334601F00700C0F1070ABAF11D
:10061000040F02D94FF0040A01E0C0F1070AD146E5
:1006200000F1040ABAF1070F02D24FF0000A01E00C
:10063000A0F1030AD4464FF0010A0AFA09FAAAF116
:10064000010A0AEA020A0AFA0CFA4FF0010B0BFA45
:100650000CFBABF1010B0BEA030B4AEA0B0421463E
:10066000404600F045FEBDE8F09F000000BF00F0EE
:100670000702064B19684FF6FF031940044B0B4362
:1006800043EA0221014B196000BF70470CED00E006
:100690000000FA0570B504460D460CB9012070BD86
:1006A0005A48006800F00700A8420ED25748006878
:1006B00020F007002843554908600846006800F00C
:1006C0000700A84201D00120E9E7207800F00200ED
:1006D00002281DD1207800F00400042805D14C48E0
:1006E000406840F4E0604A494860207800F0080023
:1006F000082805D14648406840F4605044494860A5
:100700004348406820F0F000A16808434049486031
:10071000207800F0010078B36068012806D13C48D9
:10072000006800F4003090B90120B8E76068022842
:1007300006D13748006800F0007040B90120AEE7EC
:100740003348006800F0020008B90120A7E73048EC
:10075000406820F00300616808432D494860FFF7B6
:10076000E9FE064609E0FFF7E5FE801B41F288310D
:10077000884202D9032092E707E02548406800F04C
:100780000C006168B0EB810FEDD12048006800F0EB
:100790000700A8420ED91D48006820F00700284332
:1007A0001A4908600846006800F00700A84201D016
:1007B000012074E7207800F00400042807D11448D1
:1007C000406820F4E060E1680843114948602078FF
:1007D00000F00800082808D10D48406820F4605057
:1007E000216940EAC1000A49486000F03FF8084921
:1007F0004968C1F30311074A515CC84006490860C3
:1008000006480068FFF7BCFE002048E700200240D1
:1008100000100240D413000800000020080000204F
:1008200001480068704700000000002000B5FFF795
:10083000F7FF04494968C1F30221034A515CC840EB
:1008400000BD000000100240E413000800B5FFF7EF
:10085000E7FF04494968C1F3C221034A515CC8401B
:1008600000BD000000100240E4130008F0B585B0A0
:100870000FF26C0C9CE8E01001A8A0E8E0101CA5A9
:100880002D68009500210022002300240020194D2E
:10089000696801F00C05F5B1042D02D0082D19D1BD
:1008A00001E0154819E001ADC1F38346AC5D01F4E8
:1008B000803555B10F4D6D68C5F340451DF80520D5
:1008C0000D4D6543B5FBF2F302E00C4D04FB05F35F
:1008D000184602E000BF084800BF00BF05B0F0BDE9
:1008E00002030405060708090A0B0C0D0E0F101071
:1008F000010200000010024000127A0000093D00D1
:10090000F8B504460CB90120F8BD207800F00100CC
:10091000002878D0F848406800F00C0004280CD07B
:10092000F548406800F00C00082811D1F2484068F2
:1009300000F48030B0F5803F0AD1EF48006800F441
:10094000003000285FD0606800285CD10120DBE720
:1009500000BF6068B0F5803F06D1E748006840F40A
:100960008030E549086028E0606858B9E2480068CE
:1009700020F48030E04908600846006820F48020B8
:1009800008601AE06068B0F5A02F0BD1DA48006863
:1009900040F48020D84908600846006840F4803060
:1009A00008600AE0D448006820F48030D24908602A
:1009B0000846006820F48020086000BF606888B1A5
:1009C000FFF7B8FD054606E0FFF7B4FD401B6428BD
:1009D00001D9032098E7C848006800F400300028D7
:1009E000F2D010E0FFF7A6FD054606E0FFF7A2FDF6
:1009F000401B642801D9032086E7BF48006800F443
:100A000000300028F2D1207800F00200022857D1EF
:100A1000B948406800F00C0050B1B748406800F099
:100A20000C00082818D1B448406800F4803098B908
:100A3000B148006800F0020020B12069012801D00F
:100A4000012061E7AC48006820F0F800616940EAE5
:100A5000C100A949086033E02069E8B10120A74935
:100A60000860FFF767FD054606E0FFF763FD401BE2
:100A7000022801D9032047E79F48006800F00200E0
:100A80000028F2D09C48006820F0F800616940EA34
:100A9000C1009949086013E0002098490860FFF7F9
:100AA00049FD054606E0FFF745FD401B022801D938
:100AB000032029E79048006800F002000028F2D1E6
:100AC000207800F0080008282DD1A069B8B10120D5
:100AD0008B490860FFF72EFD054606E0FFF72AFD6B
:100AE000401B022801D903200EE78348406A00F02A
:100AF00002000028F2D0012000F048FA13E00020A4
:100B00007F490860FFF716FD054606E0FFF712FD76
:100B1000401B022801D90320F6E67748406A00F01E
:100B200002000028F2D1207800F00400042873D1DC
:100B300000277148C06900F0805070B900BF6E484E
:100B4000C06940F080506C49C8610846C06900F037
:100B50008050009000BF00BF01276A48006800F481
:100B60008070B0B96748006840F4807065490860DB
:100B7000FFF7E0FC054606E0FFF7DCFC401B6428BD
:100B800001D90320C0E65F48006800F480700028A7
:100B9000F2D000BFE068012806D15748006A40F053
:100BA00001005549086227E0E06858B95248006AD8
:100BB00020F00100504908620846006A20F0040055
:100BC000086219E0E06805280BD14B48006A40F044
:100BD0000400494908620846006A40F001000862C2
:100BE0000AE04548006A20F00100434908620846CF
:100BF000006A20F00400086200BFE068A0B1FFF7BF
:100C000099FC054609E0FFF795FC401B41F288314D
:100C1000884202D9032077E622E03748006A00F0D4
:100C200002000028EFD012E0FFF784FC054608E040
:100C3000FFF780FC401B41F28831884201D9032034
:100C400062E62D48006A00F002000028F0D1012F72
:100C500005D12948C06920F080502749C86100BFEC
:100C6000E069C8B32448406800F00C00082860D050
:100C7000E069022848D1002020490866FFF75AFCA5
:100C8000054606E0FFF756FC401B022801D9032069
:100C90003AE61948006800F000700028F2D1206A96
:100CA000B0F5803F07D11448406820F40030A168B7
:100CB000084311494860D4E9080108430E494968CE
:100CC00021F4741108430C49486001200B4908665F
:100CD000FFF730FC054607E03DE0FFF72BFC401B2B
:100CE000022801D903200FE60348006800F00070D5
:100CF0000028F2D02FE00000001002400000424225
:100D00008004424200700040002014490866FFF74A
:100D100011FC054606E0FFF70DFC401B022801D937
:100D20000320F1E50E48006800F000700028F2D1C1
:100D300011E0E069012800D1E6E50948466806F4BB
:100D40008031206A814204D106F47011606A8142C8
:100D500001D00120D8E50020D6E500000000424285
:100D60000010024070B504462546681EB0F1807F31
:100D700001D301200FE0681E4FF0E02148610F21F0
:100D80004FF0FF3000F0B4FA00204FF0E02188610E
:100D900007200861002070BD10B504460CB9012081
:100DA00010BDA06900B100E000BF94F8390028B977
:100DB000002084F83800204600F028F8242084F829
:100DC00039002068C06820F400502168C8602046BF
:100DD00000F052F92068006920F490402168086111
:100DE0002068406920F02A00216848612068C068B6
:100DF00040F400502168C8600020E063202084F89F
:100E0000390084F83A000020CAE7000010B586B027
:100E1000044600BF2248806940F480402049886130
:100E20000846806900F48040019000BF00BF00BF09
:100E30000846806940F0040088610846806900F037
:100E40000400019000BF00BF00BF0846806940F069
:100E5000040088610846806900F00400019000BF2A
:100E600000BF481502900220039001200490032047
:100E7000059002A90B48FFF7BDF94FF4806002907E
:100E80000020039002A90748FFF7B4F901220021CE
:100E90002520FFF7ACFB2520FFF799FB06B010BD1E
:100EA00000100240000801402DE9F84304460D46B9
:100EB00016461F464FF0000994F8390020285CD1EF
:100EC00005B116B90120BDE8F88300BF94F83800D9
:100ED000012801D10220F6E7012084F8380000BF84
:100EE0000020E063212084F83900FFF723FB8146CE
:100EF000A684E6842BE0E08C401EE084A068B0F578
:100F0000805F16D14B46002280212046009700F0DA
:100F100083F908B10320D6E7A846B8F80000C0F36B
:100F2000080021684860206908B9AD1C0FE06D1CFD
:100F30000DE04B46002280212046009700F06CF91E
:100F400008B10320BFE715F8010B21684860E08C69
:100F50000028D0D14B46002240212046009700F0C7
:100F60005BF908B10320AEE7202084F8390000BF08
:100F7000002084F8380000BFA5E70220A3E700BFE7
:100F8000FEE700BFFEE770477047000008B508495C
:100F90000968C9084FF47A72B1FBF2F1414300913C
:100FA00000BF00BF00994A1E00920029F9D108BD78
:100FB00000000020704710B5FFF7C2FA10BD00B561
:100FC0008FB014210AA8FFF7D6F828216846FFF74A
:100FD000D2F801200090000401900020029002202D
:100FE0000790C10308914FF4E01109916846FFF79B
:100FF00087FC08B100BFFEE70F200A9002200B908B
:1010000000200C900E904FF480600D9002210AA8F1
:10101000FFF740FB08B100BFFEE70FB000BD0000C6
:101020001148006840F001000F4908600846406818
:101030000E4908400C494860084600680C490840C1
:10104000094908600846006820F4802008600846C6
:10105000406820F4FE0048604FF41F008860C80319
:101060000449086070470000001002400000FFF8CB
:10107000FFFFF6FE08ED00E070B50446216809693F
:1010800021F44051E2681143226811612269A1688C
:101090001143626941EA02052168C96841F20C62A4
:1010A000914329432268D1602168496921F4407144
:1010B000A269114322685161564A2168914254D174
:1010C000FFF7C4FB00EBC00101EB00116268920066
:1010D000B1FBF2F100EBC00202EB001263689B006F
:1010E000B2FBF3F26423B2FBF3F202EBC20303EBB5
:1010F0000212A1EB8201322202EB01116422B1FB48
:10110000F2F101F0F00100EBC00202EB00126368A3
:101110009B00B2FBF3F26423B2FBF3F201EB021289
:1011200000EBC00101EB001163689B00B1FBF3F120
:1011300000EBC00303EB00136668B600B3FBF6F3E5
:101140006426B3FBF6F303EBC30606EB0313A1EB34
:101150008301322303EB01116423B1FBF3F101F0AE
:101160000F0111442268916053E0FFF75FFB00EB31
:10117000C00101EB001162689200B1FBF2F100EBDB
:10118000C00202EB001263689B00B2FBF3F264231F
:10119000B2FBF3F202EBC20303EB0212A1EB8201FA
:1011A000322202EB01116422B1FBF2F101F0F001F5
:1011B00000EBC00202EB001263689B00B2FBF3F28B
:1011C0006423B2FBF3F201EB021200EBC00101EB6E
:1011D000001163689B00B1FBF3F100EBC00303EB6C
:1011E00000136668B600B3FBF6F36426B3FBF6F3B0
:1011F00003EBC30606EB0313A1EB8301322303EBDE
:1012000001116423B1FBF3F101F00F0111442268D5
:10121000916070BD003801402DE9F04104460D4653
:1012200017469846069E21E0701CF8B12EB1FFF7D4
:1012300081F9A0EB0800B04218D92068C06820F4FA
:10124000D0702168C8602068406920F001002168E2
:101250004861202084F8390084F83A0000BF00205B
:1012600084F8380000BF0320BDE8F08120680068E2
:101270002840A84201D1012000E00020B842D3D08C
:101280000020F1E70020074909680968C1F340110F
:1012900031B1044909684968C8B20249096848601F
:1012A000704700001400002000BFFEE770B5044640
:1012B000002500BF61194FF47A7301220348FFF73C
:1012C000F3FD6D1C605D0028F4D170BD140000209A
:1012D000014A024900F02FB85913000810000020FD
:1012E00002480068C0F30220704700000CED00E0E7
:1012F00010B5002804DB0A07130E054A135406E054
:101300000A07140E034A00F00F031B1FD45410BD2C
:1013100000E400E018ED00E002E008C8121F08C178
:10132000002AFAD170477047002001E001C1121F66
:10133000002AFBD170472DE9F04116460F460446BE
:10134000002503E03946B047641C6D1C2078002856
:10135000F8D12846BDE8F08113B50C464FF47A73F6
:10136000012269460248FFF79FFD00981CBD00005E
:1013700014000020FFF7F0F8FFF721FEFEF71AFF38
:1013800003A0FFF7A5FF07A0FFF790FF00BFFEE750
:10139000BBB6D3ADCAB9D3C3D2B0BBF0BFAAB7A254
:1013A000B0E50A00D7D4B6A8D2E5BAAFCAFDCAE400
:1013B000B3F6A3BAD5E2CAC7D2BBB8F6B4AEBFDAA9
:1013C000D6D0B6CFBDD3CAD5BBD8CFD4CAB5D1E954
:1013D0000A000000000000000000000001020304F9
:1013E0000607080900000000010203040C140008AD
:1013F000000000201400000018130008201400084A
:101400001400002044040000281300080024F40005
:1014100000000000100000000100000000000000BB
:0400000508000131BD
:00000001FF
